:100000000C942A000C9447000C9447000C94470071
:100010000C9447000C9447000C945A090C94470028
:100020000C9447000C9447000C9428080C94F50796
:100030000C9447000C9447000C9447000C94470024
:100040000C9447000C9447000C9447000C94470014
:100050000C94470011241FBECFE5D8E0DEBFCDBF12
:1000600011E0A0E6B0E0E6E9FFE202C005900D92E3
:10007000AE36B107D9F711E0AEE6B1E001C01D928E
:10008000A737B107E1F70E9419100C94C9170C9417
:100090000000EF92FF920F931F937B018C0120E0F1
:1000A00030E040E05FE40E94F50388238CF0C80153
:1000B000B70120E030E040E05FE40E94C1010E940F
:1000C00055049B01AC01205030404040504806C0D0
:1000D000C801B7010E9455049B01AC01B901CA01D6
:1000E0001F910F91FF90EF900895A0E0B0E0EBE733
:1000F000F0E00C949217DC012B01FA019C919230F4
:1001000008F439C1EB018881823008F433C194309E
:1001100069F4843009F02FC111969C91119789815F
:10012000981709F428C1A0E6B0E025C1843009F48D
:1001300021C18230A9F4923009F01DC19A01AD01AC
:1001400088E0EA010990AE01E90109929E0181501F
:10015000C1F7E201898111969C918923818308C1AD
:10016000923009F407C112962D903C901397EB0141
:100170008A819B811496AD90BD90CD90DC901797AD
:10018000EC80FD800E811F819101281B390BB90184
:1001900037FF04C066277727621B730B6032710537
:1001A0000CF061C0121613066CF537014801062EDB
:1001B00004C096948794779467940A94D2F721E0C8
:1001C00030E040E050E004C0220F331F441F551FB1
:1001D0006A95D2F721503040404050402E213F21B7
:1001E00040235123211531054105510521F021E01E
:1001F00030E040E050E079018A01E628F72808293C
:1002000019293CC0232BD1F1260E371E350146019A
:10021000062E04C096948794779467940A94D2F734
:1002200021E030E040E050E004C0220F331F441FC3
:10023000551F6A95D2F721503040404050402A2146
:100240003B214C215D21211531054105510521F04E
:1002500021E030E040E050E059016A01A628B728CB
:10026000C828D9280BC0821593052CF01C01AA249C
:10027000BB24650103C0EE24FF24870111969C91E5
:10028000D20111968C91981709F445C0992339F041
:10029000A80197012A193B094C095D0906C0A6016E
:1002A00095012E193F09400B510B57FD08C01182D3
:1002B0003382228224833583468357831DC081E0A5
:1002C00081833382228288279927DC01821B930B4A
:1002D000A40BB50B84839583A683B7830DC0220F2F
:1002E000331F441F551F24833583468357838281E0
:1002F000938101979383828324813581468157813D
:10030000DA01C9010197A109B1098F5F9F4FAF4F72
:10031000BF4328F30BC0918333822282EA0CFB1C7B
:100320000C1D1D1DE482F5820683178383E0808304
:10033000248135814681578157FF1AC0C901AA27F8
:1003400097FDA095BA2F81709070A070B0705695EF
:10035000479537952795822B932BA42BB52B848318
:100360009583A683B7838281938101969383828349
:10037000DF0101C0D201CD01CDB7DEB7E2E10C94BF
:10038000AE17A0E2B0E0E7ECF1E00C949E176983B1
:100390007A838B839C832D833E834F835887E9E048
:1003A000EE2EF12CEC0EFD1ECE010196B7010E943F
:1003B00046068E010F5E1F4FCE010596B8010E94C2
:1003C00046068A8991E089278A8BC701B801AE0168
:1003D000475E5F4F0E9475000E947105A096E6E09F
:1003E0000C94BA17A0E2B0E0E8EFF1E00C949E178D
:1003F00069837A838B839C832D833E834F835887C5
:10040000F9E0EF2EF12CEC0EFD1ECE010196B701A6
:100410000E9446068E010F5E1F4FCE010596B80161
:100420000E944606C701B801AE01475E5F4F0E94B9
:1004300075000E947105A096E6E00C94BA17A0E240
:10044000B0E0E5E2F2E00C94921769837A838B8343
:100450009C832D833E834F835887CE010196BE0136
:10046000675F7F4F0E944606CE010596BE016F5E14
:100470007F4F0E9446069985923088F089898230A4
:10048000C8F0943019F4823051F404C0843029F457
:10049000923081F480E690E0C6C0923049F420E0CA
:1004A0009A858A89981321E02A87CE010996BBC0D4
:1004B000823049F420E09A858A89981321E02A8BBA
:1004C000CE014196B0C02D843E844F8458886D88FB
:1004D0007E888F88988CEE24FF248701AA24BB2471
:1004E000650140E050E060E070E0E0E0F0E0C10174
:1004F00081709070892BE9F0E60CF71C081D191D1E
:100500009A01AB012A0D3B1D4C1D5D1D80E090E062
:10051000A0E0B0E0E614F7040805190520F481E036
:1005200090E0A0E0B0E0BA01A901480F591F6A1F8E
:100530007B1FAA0CBB1CCC1CDD1C97FE08C081E0F5
:1005400090E0A0E0B0E0A82AB92ACA2ADB2A3196B6
:10055000E032F10549F0660C771C881C991C569412
:10056000479437942794C3CFFA85EA892B893C892D
:100570008B859C85280F391F2E5F3F4F17C0CA01FE
:1005800081709070892B61F016950795F794E79428
:1005900080E090E0A0E0B0E8E82AF92A0A2B1B2BC3
:1005A00076956795579547952F5F3F4F77FDE7CF36
:1005B0000CC0440F551F661F771F17FD4160EE0CDE
:1005C000FF1C001F111F21503040403090E05907A0
:1005D00090E0690790E4790760F32B8F3C8FDB0193
:1005E000CA018F779070A070B07080349105A1051A
:1005F000B10561F447FD0AC0E114F10401051105DC
:1006000029F0405C5F4F6F4F7F4F40781A8EFE1786
:1006100011F081E08A8F4D8F5E8F6F8F78A383E01A
:10062000898FCE0149960E947105A096E2E10C9453
:10063000AE17A8E1B0E0EFE1F3E00C949A176983FC
:100640007A838B839C832D833E834F835887B9E0C5
:10065000EB2EF12CEC0EFD1ECE010196B7010E948F
:1006600046068E010F5E1F4FCE010596B8010E940F
:1006700046062985223008F47EC03989323010F4CC
:10068000B8017CC08A859A8989278A87243011F02D
:10069000223031F4231709F06EC060E670E06EC0BE
:1006A000343039F41D861E861F86188A1C861B86E8
:1006B00004C0323021F484E08987B7015FC02B8504
:1006C0003C858B899C89281B390B3C872B87ED84C3
:1006D000FE840F851889AD88BE88CF88D88CEA142F
:1006E000FB040C051D0540F4EE0CFF1C001F111F40
:1006F000215030403C872B8720E030E040E050E044
:1007000080E090E0A0E0B0E460E070E0EA14FB0478
:100710000C051D0540F0282B392B4A2B5B2BEA18C2
:10072000FB080C091D09B695A79597958795EE0CC2
:10073000FF1C001F111F6F5F7F4F6F31710531F775
:10074000DA01C9018F779070A070B0708034910584
:10075000A105B10561F427FD0AC0E114F10401050A
:10076000110529F0205C3F4F4F4F5F4F20782D87B8
:100770003E874F87588BBE01675F7F4FCB010E943A
:1007800071056896EAE00C94B617A8E1B0E0EBECCE
:10079000F3E00C949E1769837A838B839C832D836B
:1007A0003E834F83588789E0E82EF12CEC0EFD1E26
:1007B000CE010196B7010E9446068E010F5E1F4FC3
:1007C000CE010596B8010E9446068985823040F028
:1007D0008989823028F0C701B8010E94BE0601C095
:1007E0008FEF6896E6E00C94BA17A8E1B0E0EBEF63
:1007F000F3E00C949E1769837A838B839C832D830B
:100800003E834F83588789E0E82EF12CEC0EFD1EC5
:10081000CE010196B7010E9446068E010F5E1F4F62
:10082000CE010596B8010E9446068985823040F0C7
:100830008989823028F0C701B8010E94BE0601C034
:100840008FEF6896E6E00C94BA17A8E1B0E0EBE20F
:10085000F4E00C949E1769837A838B839C832D83A9
:100860003E834F83588789E0E82EF12CEC0EFD1E65
:10087000CE010196B7010E9446068E010F5E1F4F02
:10088000CE010596B8010E9446068985823040F067
:100890008989823028F0C701B8010E94BE0601C0D4
:1008A00081E06896E6E00C94BA17ACE0B0E0EBE5C6
:1008B000F4E00C94A21769837A838B839C83CE0126
:1008C0000196BE016B5F7F4F0E9446068D8182308C
:1008D00061F1823050F1843021F48E81882351F10E
:1008E0002EC02F81388537FD20C06E812F31310514
:1008F0001CF06623F9F023C08EE190E0821B930B7D
:1009000029853A854B855C8504C056954795379572
:1009100027958A95D2F76623B1F05095409530958A
:1009200021953F4F4F4F5F4F0EC020E030E040E039
:1009300050E009C02FEF3FEF4FEF5FE704C020E02A
:1009400030E040E050E8B901CA012C96E2E00C9496
:10095000BE17A8E0B0E0EFEAF4E00C949A177B0130
:100960008C01611571058105910519F482E0898377
:1009700060C083E089838EE1C82ED12CDC82CB82DB
:10098000ED82FE820F831887C801B7010E942205FD
:10099000FC013197F7FF3BC0222733272E1B3F0B6B
:1009A00057016801022E04C0D694C794B794A79447
:1009B0000A94D2F740E050E060E070E081E090E01F
:1009C000A0E0B0E004C0880F991FAA1FBB1F2A95A2
:1009D000D2F70197A109B1098E219F21A023B1234C
:1009E0000097A105B10521F041E050E060E070E022
:1009F0004A295B296C297D294D835E836F83788723
:100A00008EE190E08E1B9F0B9C838B8312C03097EE
:100A100081F00E2E04C0EE0CFF1C001F111F0A9463
:100A2000D2F7ED82FE820F831887CE1ADF0ADC82AE
:100A3000CB821A82CE0101960E9471052896EAE0C7
:100A40000C94B617EF92FF920F931F937B018C01CA
:100A500080E0E81680E0F80681E0080780E01807EB
:100A600088F48FEFE816F1040105110531F028F044
:100A700088E090E0A0E0B0E017C080E090E0A0E067
:100A8000B0E012C080E0E81680E0F80680E00807D9
:100A900081E0180728F088E190E0A0E0B0E004C011
:100AA00080E190E0A0E0B0E020E230E040E050E003
:100AB000281B390B4A0B5B0B04C016950795F7945E
:100AC000E7948A95D2F7F701E859FF4F8081281BF8
:100AD000310941095109C9011F910F91FF90EF9010
:100AE0000895DF92EF92FF920F931F93FC01E48031
:100AF000F58006811781D1808081823048F480E0C2
:100B000090E0A0E1B0E0E82AF92A0A2B1B2BA5C04F
:100B1000843009F49FC0823021F4EE24FF24870141
:100B200005C0E114F1040105110519F4E0E0F0E05D
:100B300096C0628173819FEF623879070CF05BC0C9
:100B400022E83FEF261B370B2A3131052CF020E03D
:100B500030E040E050E02AC0B801A701022E04C0F6
:100B600076956795579547950A94D2F781E090E07E
:100B7000A0E0B0E004C0880F991FAA1FBB1F2A95F0
:100B8000D2F70197A109B1098E219F21A023B1239A
:100B90000097A105B10521F081E090E0A0E0B0E070
:100BA0009A01AB01282B392B4A2B5B2BDA01C901A7
:100BB0008F779070A070B07080349105A105B10559
:100BC00039F427FF09C0205C3F4F4F4F5F4F04C0EF
:100BD000215C3F4F4F4F5F4FE0E0F0E02030A0E05E
:100BE0003A07A0E04A07A0E45A0710F0E1E0F0E07D
:100BF00079018A0127C06038710564F5FB01E1586D
:100C0000FF4FD801C7018F779070A070B07080340B
:100C10009105A105B10539F4E7FE0DC080E490E02F
:100C2000A0E0B0E004C08FE390E0A0E0B0E0E80E08
:100C3000F91E0A1F1B1F17FF05C016950795F7948D
:100C4000E794319687E016950795F794E7948A958F
:100C5000D1F705C0EE24FF248701EFEFF0E06E2FFF
:100C6000679566276795902F9F77D794DD24D79453
:100C70008E2F8695492F462B582F5D29B701CA0123
:100C80001F910F91FF90EF90DF900895FC01DB0121
:100C9000408151812281622F6F7770E0221F2227CD
:100CA000221F9381892F880F822B282F30E0991FD4
:100CB0009927991F11969C93119721153105A9F534
:100CC000411551056105710511F482E037C082E8D4
:100CD0009FEF13969C938E9312979A01AB0167E056
:100CE000220F331F441F551F6A95D1F783E08C9361
:100CF0000DC0220F331F441F551F12968D919C91DA
:100D00001397019713969C938E931297203080E04F
:100D1000380780E0480780E4580758F314962D936D
:100D20003D934D935C93179708952F3F310579F4C8
:100D3000411551056105710519F484E08C930895FE
:100D400064FF03C081E08C9312C01C9210C02F5727
:100D5000304013963C932E93129783E08C9387E058
:100D6000440F551F661F771F8A95D1F7706414963C
:100D70004D935D936D937C93179708951F93DC01BA
:100D8000FB019C91923008F447C08081823008F4C6
:100D900043C0943051F411961C91843099F58181AF
:100DA000682F70E0611B71093FC0843021F09230E0
:100DB00031F48230B9F18181882389F12DC01196F7
:100DC0001C9111978230F1F081811817D9F4129695
:100DD0002D913C911397828193818217930794F010
:100DE00028173907BCF014968D919D910D90BC91F8
:100DF000A02D2481358146815781281739074A075C
:100E00005B0718F4112341F00AC082179307A40767
:100E1000B50740F4112319F061E070E005C06FEFF1
:100E20007FEF02C060E070E0CB011F910895DF9377
:100E3000CF9300D000D000D0CDB7DEB76B837C83DA
:100E40008D839E831A821982EBE2F0E082E0808338
:100E5000EAE2F0E088E18083E0E4F0E086E8808385
:100E60008B819C81AD81BE81880F991FAA1FBB1FFA
:100E7000880F991FAA1FBB1F880F991FAA1FBB1F8E
:100E80009C01AD0180E092E1AAE7B0E0BC01CD0198
:100E90000E947017DA01C90101979A838983E0E4FF
:100EA000F0E089819A81892F99278083E9E2F0E037
:100EB0008981808326960FB6F894DEBF0FBECDBF22
:100EC000CF91DF910895DF93CF930F92CDB7DEB727
:100ED0008983EBE2F0E08081882F90E0807290704F
:100EE0000097B9F3ECE2F0E0898180830F90CF9115
:100EF000DF910895DF93CF93CDB7DEB7EBE2F0E05B
:100F000080818823DCF7ECE2F0E08081CF91DF91F3
:100F10000895DF93CF9300D00F92CDB7DEB79B83B8
:100F20008A8319820EC08981282F30E08A819B81B3
:100F3000FC01E20FF31F80810E94630789818F5FAC
:100F400089838981282F30E08A819B81FC01E20F0F
:100F5000F31F8081882339F70F900F900F90CF9166
:100F6000DF9108950F931F93DF93CF9300D00F92DB
:100F7000CDB7DEB79B838A8319828981282F30E021
:100F80008A819B818C01020F131F0E947A07F8014E
:100F900080830FC089818F5F89838981282F30E00A
:100FA0008A819B818C01020F131F0E947A07F8012E
:100FB00080838981282F30E08A819B81FC01E20FA8
:100FC000F31F8081833231F78981282F30E08A81B5
:100FD0009B81FC01E20FF31F10820F900F900F9086
:100FE000CF91DF911F910F9108951F920F920FB62D
:100FF0000F9211242F933F934F935F936F937F939F
:101000008F939F93AF93BF93EF93FF93DF93CF9310
:10101000CDB7DEB780916E0190916F01009729F0F6
:10102000E0916E01F0916F010995CF91DF91FF91F1
:10103000EF91BF91AF919F918F917F916F915F9150
:101040004F913F912F910F900FBE0F901F901895C9
:101050001F920F920FB60F9211242F933F934F932D
:101060005F936F937F938F939F93AF93BF93EF9310
:10107000FF93DF93CF93CDB7DEB780916E01909150
:101080006F01009729F0E0916E01F0916F010995D1
:10109000CF91DF91FF91EF91BF91AF919F918F9190
:1010A0007F916F915F914F913F912F910F900FBE64
:1010B0000F901F901895DF93CF9300D0CDB7DEB778
:1010C0009A838983E981FA818281882379F4E3E52F
:1010D000F0E0808180688083E3E5F0E080818F7BB1
:1010E0008083E3E5F0E08081877F8083E981FA8176
:1010F0008281823079F4E3E5F0E08081806880834A
:10110000E3E5F0E080818F7B8083E3E5F0E08081A0
:1011100088608083E981FA818281833079F4E3E514
:10112000F0E080818F778083E3E5F0E08081806468
:101130008083E3E5F0E0808188608083E981FA8143
:101140008481882351F4E3E5F0E080818F7E808301
:10115000E3E5F0E080818F7D8083E981FA818481FD
:10116000813051F4E3E5F0E0808180618083E3E544
:10117000F0E080818F7D8083E981FA8184818230F3
:1011800051F4E3E5F0E080818F7E8083E3E5F0E0D9
:10119000808180628083E981FA818481833051F487
:1011A000E3E5F0E0808180618083E3E5F0E0808129
:1011B00080628083A3E5B0E0E3E5F0E08081982FD2
:1011C000987FE981FA818381892B8C93A2E5B0E035
:1011D000E981FA8180818C93ACE5B0E0E981FA8104
:1011E00081818C93E9E5F0E0808182608083E9E58C
:1011F000F0E08081816080830F900F90CF91DF912C
:101200000895DF93CF93CDB7DEB7E3E5F0E010822A
:10121000E2E5F0E01082ECE5F0E01082E9E5F0E0D4
:1012200080818D7F8083E9E5F0E080818E7F8083FF
:1012300010926F0110926E01CF91DF910895DF93AC
:10124000CF9300D0CDB7DEB79A83898389819A8105
:1012500090936F0180936E010F900F90CF91DF916B
:101260000895DF93CF930F92CDB7DEB7898389813D
:10127000853610F084E68983ECE5F0E08981482F1B
:1012800050E0CA019C01220F331FC9019695982F87
:10129000882797958795821B930B840F951F24E6CB
:1012A00030E0B9010E945C17CB0180830F90CF9191
:1012B000DF9108951F920F920FB60F9211242F9372
:1012C0003F934F935F936F937F938F939F93AF93CE
:1012D000BF93EF93FF93DF93CF93CDB7DEB78091AA
:1012E000700190917101009729F0E0917001F091E7
:1012F00071010995CF91DF91FF91EF91BF91AF916E
:101300009F918F917F916F915F914F913F912F911D
:101310000F900FBE0F901F901895DF93CF9300D0C2
:10132000CDB7DEB79A838983E1E3F0E080818F7BDC
:101330008083EFE4F0E0808188608083EFE4F0E078
:10134000808184608083AEE4B0E0EEE4F0E08081F0
:10135000982F987FE981FA818081892B8C93AEE464
:10136000B0E0EEE4F0E08081282F2F7BE981FA8164
:101370008181882F90E00024969587950794969513
:1013800087950794982F802D822B8C93ECE4F0E0C6
:1013900011821082E6E4F0E011821082E9E5F0E0CB
:1013A0008081806280830F900F90CF91DF910895AC
:1013B000DF93CF9300D0CDB7DEB79A83898389813D
:1013C0009A8190937101809370010F900F90CF914B
:1013D000DF910895DF93CF930F92CDB7DEB7898366
:1013E000AEE4B0E0EEE4F0E08081282F2F7B89812D
:1013F000882F90E000249695879507949695879579
:101400000794982F802D822B8C930F90CF91DF9192
:101410000895DF93CF93CDB7DEB7E6E4F0E08081A7
:101420009181CF91DF910895DF93CF93CDB7DEB750
:10143000ECE4F0E011821082CF91DF910895DF9308
:10144000CF93CDB7DEB7EFE4F0E01082EEE4F0E04A
:101450001082ECE4F0E011821082E6E4F0E0118208
:101460001082E9E5F0E080818F7D80831092710128
:1014700010927001CF91DF910895DF93CF9300D048
:1014800000D00F92CDB7DEB789836A834B838A8100
:10149000883008F0D5C08981843008F0D1C08981B6
:1014A000282F30E03D832C838C819D8181309105F4
:1014B00009F443C02C813D81223031052CF48C810C
:1014C0009D81009771F0BCC02C813D812230310597
:1014D00009F45FC08C819D818330910509F485C03A
:1014E000AFC08B818130A1F4AAE3B0E0EAE3F0E081
:1014F0008081482F8A81282F30E081E090E0022E01
:1015000002C0880F991F0A94E2F7842B8C9398C02D
:10151000AAE3B0E0EAE3F0E08081482F8A81282F37
:1015200030E081E090E0022E02C0880F991F0A94FB
:10153000E2F7809584238C9383C08B818130A1F462
:10154000A7E3B0E0E7E3F0E08081482F8A81282F0D
:1015500030E081E090E0022E02C0880F991F0A94CB
:10156000E2F7842B8C936CC0A7E3B0E0E7E3F0E0F4
:101570008081482F8A81282F30E081E090E0022E80
:1015800002C0880F991F0A94E2F7809584238C93F8
:1015900057C08B818130A1F4A4E3B0E0E4E3F0E034
:1015A0008081482F8A81282F30E081E090E0022E50
:1015B00002C0880F991F0A94E2F7842B8C9340C0D5
:1015C000A4E3B0E0E4E3F0E08081482F8A81282F93
:1015D00030E081E090E0022E02C0880F991F0A944B
:1015E000E2F7809584238C932BC08B818130A1F40A
:1015F000A1E3B0E0E1E3F0E08081482F8A81282F69
:1016000030E081E090E0022E02C0880F991F0A941A
:10161000E2F7842B8C9314C0A1E3B0E0E1E3F0E0A7
:101620008081482F8A81282F30E081E090E0022ECF
:1016300002C0880F991F0A94E2F7809584238C9347
:101640000F900F900F900F900F90CF91DF91089512
:10165000DF93CF9300D000D00F92CDB7DEB7898350
:101660006A834B838A81883008F0D5C089818430B1
:1016700008F0D1C08981282F30E03D832C838C81F4
:101680009D818130910509F443C02C813D81223038
:1016900031052CF48C819D81009771F0BCC02C81A8
:1016A0003D812230310509F45FC08C819D818330FA
:1016B000910509F485C0AFC08B818823A9F4ABE301
:1016C000B0E0EBE3F0E08081482F8A81282F30E002
:1016D00081E090E0022E02C0880F991F0A94E2F781
:1016E000809584238C9397C0ABE3B0E0EBE3F0E00C
:1016F0008081482F8A81282F30E081E090E0022EFF
:1017000002C0880F991F0A94E2F7842B8C9383C040
:101710008B818823A9F4A8E3B0E0E8E3F0E08081BE
:10172000482F8A81282F30E081E090E0022E02C00D
:10173000880F991F0A94E2F7809584238C936BC0DD
:10174000A8E3B0E0E8E3F0E08081482F8A81282F09
:1017500030E081E090E0022E02C0880F991F0A94C9
:10176000E2F7842B8C9357C08B818823A9F4A5E3DF
:10177000B0E0E5E3F0E08081482F8A81282F30E057
:1017800081E090E0022E02C0880F991F0A94E2F7D0
:10179000809584238C933FC0A5E3B0E0E5E3F0E0BF
:1017A0008081482F8A81282F30E081E090E0022E4E
:1017B00002C0880F991F0A94E2F7842B8C932BC0E8
:1017C0008B818823A9F4A2E3B0E0E2E3F0E080811A
:1017D000482F8A81282F30E081E090E0022E02C05D
:1017E000880F991F0A94E2F7809584238C9313C085
:1017F000A2E3B0E0E2E3F0E08081482F8A81282F65
:1018000030E081E090E0022E02C0880F991F0A9418
:10181000E2F7842B8C930F900F900F900F900F9006
:10182000CF91DF910895DF93CF9300D000D00F9236
:10183000CDB7DEB78A836B8319828B81883008F03D
:1018400084C08A81843008F080C08A81282F30E0EB
:101850003D832C834C815D814130510579F18C8130
:101860009D818230910534F42C813D812115310513
:1018700069F06BC04C815D8142305105B9F18C81BA
:101880009D818330910509F449C05FC0E9E3F0E030
:101890008081282F30E08B81882F90E0A90102C041
:1018A000559547958A95E2F7CA0181709070882313
:1018B00019F081E0898349C0198247C0E6E3F0E06E
:1018C0008081282F30E08B81882F90E0A90102C011
:1018D000559547958A95E2F7CA01817090708823E3
:1018E00019F081E0898331C019822FC0E3E3F0E071
:1018F0008081282F30E08B81882F90E0A90102C0E1
:10190000559547958A95E2F7CA01817090708823B2
:1019100019F081E0898319C0198217C0E0E3F0E073
:101920008081282F30E08B81882F90E0A90102C0B0
:10193000559547958A95E2F7CA0181709070882382
:1019400019F081E0898301C0198289810F900F907D
:101950000F900F900F90CF91DF910895DF93CF9369
:1019600000D000D0CDB7DEB789836A838981843007
:1019700090F58981282F30E03C832B838B819C81DB
:1019800081309105D1F02B813C81223031052CF43E
:101990008B819C81009761F01EC02B813C8122309D
:1019A000310581F08B819C818330910581F013C0DA
:1019B000EAE3F0E08A8180830EC0E7E3F0E08A8109
:1019C000808309C0E4E3F0E08A81808304C0E1E31E
:1019D000F0E08A8180830F900F900F900F90CF914D
:1019E000DF910895DF93CF9300D000D0CDB7DEB75D
:1019F00089836A838981843090F58981282F30E03A
:101A00003C832B838B819C8181309105D1F02B818C
:101A10003C81223031052CF48B819C81009761F050
:101A20001EC02B813C812230310581F08B819C814D
:101A30008330910581F013C0EBE3F0E08A8180836D
:101A40000EC0E8E3F0E08A81808309C0E5E3F0E0BE
:101A50008A81808304C0E2E3F0E08A8180830F9072
:101A60000F900F900F90CF91DF910895DF93CF9358
:101A700000D000D00F92CDB7DEB78A8319828A8159
:101A8000843010F01D8234C08A81282F30E03C83DE
:101A90002B838B819C8181309105D1F02B813C81FE
:101AA000223031052CF48B819C81009761F01EC09F
:101AB0002B813C812230310581F08B819C818330E8
:101AC000910581F013C0E9E3F0E0808189830EC0C5
:101AD000E6E3F0E08081898309C0E3E3F0E0808100
:101AE000898304C0E0E3F0E08081898399819D834C
:101AF0008D810F900F900F900F900F90CF91DF91ED
:101B00000895DF93CF9300D0CDB7DEB781E065E0D5
:101B100041E00E943D0A82E0898381E08A83CE0110
:101B200001960E948D0984EA9EE00E94D8090F90D8
:101B30000F90CF91DF910895DF93CF93CDB7DEB7AC
:101B400068970FB6F894DEBF0FBECDBF81E065E0A9
:101B500041E00E94280B80E090E0A0EAB1E48D8B88
:101B60009E8BAF8BB88F6D897E898F89988D2BEA7C
:101B70003AEA4AE250E40E941F02DC01CB01898B61
:101B80009A8BAB8BBC8B69897A898B899C8920E085
:101B900030E040E85FE30E94250488231CF481E0E4
:101BA000888B91C069897A898B899C8920E030E093
:101BB0004FE753E40E94C50318160CF07BC06D89F3
:101BC0007E898F89988D20E030E04AE754E40E94B6
:101BD0001903DC01CB018C879D87AE87BF876C859D
:101BE0007D858E859F8520E030E04AEF54E40E9499
:101BF0001F02DC01CB0188879987AA87BB8768858C
:101C000079858A859B8520E030E040E85FE30E948B
:101C1000250488232CF481E090E09F838E833FC0CD
:101C2000688579858A859B8520E03FEF4FE757E4FB
:101C30000E94C50318164CF56C857D858E859F85A1
:101C400020E030E040E251E40E941F02DC01CB01C1
:101C5000BC01CD010E944900DC01CB019F838E8332
:101C60000FC088EC90E09D838C838C819D810197CF
:101C7000F1F79D838C838E819F8101979F838E8353
:101C80008E819F81009769F724C0688579858A8550
:101C90009B850E944900DC01CB019F838E838E814E
:101CA0009F819B838A838A819B810197F1F79B8324
:101CB0008A830FC069897A898B899C890E9449002F
:101CC000DC01CB01888B8889898389818A95F1F72A
:101CD000898381E065E040E00E94280B68960FB69A
:101CE000F894DEBF0FBECDBFCF91DF910895DF9393
:101CF000CF9300D0CDB7DEB70E949C0D80917301C9
:101D000090917401CC01A0E0B0E0BC01CD010E9433
:101D1000A904DC01CB01BC01CD0123E333E34BE695
:101D200052E40E941903DC01CB01BC01CD010E94E9
:101D30004900DC01CB019A83898389819A810F90C4
:101D40000F90CF91DF910895DF93CF93CDB7DEB79A
:101D5000809172018F5F8093720180917201813056
:101D600031F40E94140A80E00E94EA090FC08091B9
:101D70007201823059F40E94090A90937401809391
:101D8000730181E00E94EA0910927201CF91DF9104
:101D90000895DF93CF93CDB7DEB781E00E947E0F29
:101DA00081E00E94BA0FCF91DF910895DF93CF9326
:101DB000CDB7DEB782E00E947E0F82E00E94BA0FAC
:101DC000CF91DF910895DF93CF93CDB7DEB782E057
:101DD0000E947E0F81E00E94BA0FCF91DF9108959B
:101DE000DF93CF93CDB7DEB781E00E947E0F82E014
:101DF0000E94BA0FCF91DF910895DF93CF93CDB7B3
:101E0000DEB780E00E947E0F80E00E94BA0FCF9183
:101E1000DF910895DF93CF930F92CDB7DEB789831B
:101E200089810E9431090F90CF91DF910895DF934E
:101E3000CF93CDB7DEB72A970FB6F894DEBF0FBEAB
:101E4000CDBFCE0101969F838E83E8E6F1E0F9874E
:101E5000E887F5E0FA87E885F98500808885998527
:101E6000019699878887EE81FF8100828E819F810C
:101E700001969F838E839A8591509A87EA85EE23F7
:101E800051F7CE0101960E945B0881E063E041E0DA
:101E90000E943D0A80E060E041E00E943D0A80E04F
:101EA00061E041E00E943D0A80E062E041E00E9482
:101EB0003D0A80E063E041E00E943D0A80E060E08E
:101EC00040E00E94280B80E061E040E00E94280B87
:101ED00080E062E040E00E94280B80E063E040E0A8
:101EE0000E94280B84E60E9431092A960FB6F894C6
:101EF000DEBF0FBECDBFCF91DF910895DF93CF93AB
:101F000000D00F92CDB7DEB789838981282F30E0CA
:101F10003B832A838A819B818130910581F02A81CC
:101F20003B8122303105B1F480E060E041E00E9465
:101F3000280B80E061E040E00E94280B15C080E0A3
:101F400060E040E00E94280B80E061E041E00E94F8
:101F5000280B0AC080E060E040E00E94280B80E08F
:101F600061E040E00E94280B0F900F900F90CF91FE
:101F7000DF910895DF93CF9300D00F92CDB7DEB7F6
:101F800089838981282F30E03B832A838A819B8142
:101F90008130910581F02A813B8122303105B1F4F5
:101FA00080E062E041E00E94280B80E063E040E0D6
:101FB0000E94280B15C080E062E040E00E94280BE0
:101FC00080E063E041E00E94280B0AC080E062E00C
:101FD00040E00E94280B80E063E040E00E94280B74
:101FE0000F900F900F90CF91DF910895DF93CF93D3
:101FF000CDB7DEB760E875E280E090E00E94170799
:10200000CF91DF910895DF93CF93CDB7DEB70E94D4
:102010007A07CF91DF910895DF93CF930F92CDB7D9
:10202000DEB7898389810E9463070F90CF91DF918A
:102030000895DF93CF93CDB7DEB70E94170F0E94AC
:10204000F60F0E94810DEFE5F0E0808180688083CB
:102050000E9403108093750109C00E9403108093B1
:1020600075010E944E1087E580937501809175017E
:10207000873599F30EC088E20E940A0F0E94770EFE
:10208000809376010E94EA150E94351685E58093BB
:10209000750180917501853571F3DACF0F931F9328
:1020A000DF93CF93CDB7DEB7C257D0400FB6F894C9
:1020B000DEBF0FBECDBF80917501282F30E0E396C3
:1020C0003FAF2EAFE397E3968EAD9FADE39782349B
:1020D000910509F4C2C0E396EEADFFADE397E3349A
:1020E000F1050CF059C0E3962EAD3FADE3972533D3
:1020F000310509F449C5E3968EAD9FADE39786336C
:1021000091054CF5E396EEADFFADE397E233F105B3
:1021100009F42EC5E3962EAD3FADE3972333310589
:102120004CF4E3968EAD9FADE3978133910509F4AE
:102130001BC542C5E396EEADFFADE397E333F10572
:1021400009F41AC5E3962EAD3FADE397243331056C
:1021500009F416C531C5E3968EAD9FADE39787337D
:10216000910509F419C5E396EEADFFADE397E733AA
:10217000F1050CF40DC5E3962EAD3FADE397283382
:10218000310509F40DC5E3968EAD9FADE397893314
:10219000910509F409C510C5E396EEADFFADE397CF
:1021A000EA34F10509F4F4C3E3962EAD3FADE397AD
:1021B0002B34310544F5E3968EAD9FADE39787341C
:1021C000910509F453C0E396EEADFFADE397E83413
:1021D000F10544F4E3962EAD3FADE3972634310587
:1021E000C9F1EAC4E3968EAD9FADE39788349105BB
:1021F00009F4E5C2E396EEADFFADE397E934F105EE
:1022000009F4A0C1D9C4E3962EAD3FADE3972235C2
:10221000310549F1E3968EAD9FADE3978335910586
:1022200044F4E396EEADFFADE397EC34F105C1F075
:10223000C3C4E3962EAD3FADE3972335310509F4D2
:1022400090C4E3968EAD9FADE3978137910509F475
:10225000AFC4B2C40E94D60EB1C40E94C90EAEC4AF
:102260000E94E30EABC40E94F00EA8C40E94E30ECD
:10227000FE01E359FF4F80E090E0A8E4B2E48083E0
:102280009183A283B3838E0107591F4FFE01E35947
:10229000FF4F608171818281938120E030E04AEFBD
:1022A00054E40E941F02DC01CB01F801808391837A
:1022B000A283B383FE01E759FF4F60817181828160
:1022C000938120E030E040E85FE30E94250488230A
:1022D00044F4FE01E959FF4F81E090E0918380834F
:1022E00064C0FE01E759FF4F608171818281938153
:1022F00020E03FEF4FE757E40E94C50318160CF0AB
:1023000043C0FE01E359FF4F608171818281938157
:1023100020E030E040E251E40E941F02DC01CB01EA
:102320008E0109591F4FBC01CD010E944900DC01FB
:10233000CB01F801918380831FC0FE01EB59FF4F51
:1023400088EC90E091838083FE01EB59FF4F808100
:1023500091810197F1F7FE01EB59FF4F9183808343
:10236000DE01A959BF4FFE01E959FF4F80819181DC
:10237000019711969C938E93FE01E959FF4F80813E
:1023800091810097D1F627C08E0109591F4FFE0198
:10239000E759FF4F60817181828193810E944900DA
:1023A000DC01CB01F80191838083DE01AD59BF4F81
:1023B000FE01E959FF4F808191818D939C93FE012D
:1023C000ED59FF4F808191810197F1F7FE01ED59A1
:1023D000FF4F918380830E94D60EFE01E15AFF4F8A
:1023E00080E090E0A8E4B2E480839183A283B38389
:1023F0008E01055A1F4FFE01E15AFF4F6081718126
:102400008281938120E030E04AEF54E40E941F0271
:10241000DC01CB01F80180839183A283B383FE01A9
:10242000E55AFF4F608171818281938120E030E025
:1024300040E85FE30E942504882344F4FE01E75A44
:10244000FF4F81E090E09183808364C0FE01E55AF4
:10245000FF4F608171818281938120E03FEF4FE7E0
:1024600057E40E94C50318160CF043C0FE01E15A60
:10247000FF4F608171818281938120E030E040E2F2
:1024800051E40E941F02DC01CB018E01075A1F4F4D
:10249000BC01CD010E944900DC01CB01F801918310
:1024A00080831FC0FE01E95AFF4F88EC90E09183C2
:1024B0008083FE01E95AFF4F808191810197F1F7F6
:1024C000FE01E95AFF4F91838083DE01A75ABF4F77
:1024D000FE01E75AFF4F80819181019711969C93ED
:1024E0008E93FE01E75AFF4F808191810097D1F6CC
:1024F00065C38E01075A1F4FFE01E55AFF4F6081E9
:102500007181828193810E944900DC01CB01F80135
:1025100091838083DE01AB5ABF4FFE01E75AFF4F24
:102520008081918111969C938E93FE01EB5AFF4F0F
:10253000808191810197F1F7FE01EB5AFF4F918362
:1025400080833CC30E94F00EFE01EF5AFF4F80E0F3
:1025500090E0A8E4B2E480839183A283B3838E01E8
:10256000035B1F4FFE01EF5AFF4F60817181828133
:10257000938120E030E04AEF54E40E941F02DC0126
:10258000CB01F80180839183A283B383FE01E35BD7
:10259000FF4F608171818281938120E030E040E8CB
:1025A0005FE30E942504882344F4FE01E55BFF4FAE
:1025B00081E090E09183808364C0FE01E35BFF4F84
:1025C000608171818281938120E03FEF4FE757E482
:1025D0000E94C50318160CF043C0FE01EF5AFF4FCE
:1025E000608171818281938120E030E040E251E49A
:1025F0000E941F02DC01CB018E01055B1F4FBC0155
:10260000CD010E944900DC01CB01F8019183808358
:102610001FC0FE01E75BFF4F88EC90E09183808351
:10262000FE01E75BFF4F808191810197F1F7FE0189
:10263000E75BFF4F91838083DE01A55BBF4FFE0107
:10264000E55BFF4F80819181019711969C938E935A
:10265000FE01E55BFF4F808191810097D1F627C095
:102660008E01055B1F4FFE01E35BFF4F60817181AF
:10267000828193810E944900DC01CB01F8019183A2
:102680008083DE01A95BBF4FFE01E55BFF4F8081C8
:1026900091818D939C93FE01E95BFF4F8081918135
:1026A0000197F1F7FE01E95BFF4F918380830E9460
:1026B000D60EFE01ED5BFF4F80E090E0A8E4B2E4AF
:1026C00080839183A283B3838E01015C1F4FFE013F
:1026D000ED5BFF4F608171818281938120E030E06A
:1026E0004AEF54E40E941F02DC01CB01F801808311
:1026F0009183A283B383FE01FF9660817181828101
:10270000938120E030E040E85FE30E9425048823C5
:102710002CF481E090E09EAF8DAF46C0FE01FF96A5
:10272000608171818281938120E03FEF4FE757E420
:102730000E94C503181664F5FE01ED5BFF4F608132
:1027400071818281938120E030E040E251E40E9477
:102750001F02DC01CB01BC01CD010E944900DC015C
:10276000CB019EAF8DAF0FC088EC90E09CAF8BAFDC
:102770008BAD9CAD0197F1F79CAF8BAF8DAD9EAD4E
:1027800001979EAF8DAF8DAD9EAD009769F716C2D4
:10279000FE01FF9660817181828193810E944900D0
:1027A000DC01CB019EAF8DAF8DAD9EAD9AAF89AFF1
:1027B00089AD9AAD0197F1F79AAF89AFFFC10E9439
:1027C000E30E80E090E0A8E4B2E48DAB9EABAFAB4B
:1027D000B8AF6DA97EA98FA998AD20E030E04AEF8F
:1027E00054E40E941F02DC01CB0189AB9AABABAB76
:1027F000BCAB69A97AA98BA99CA920E030E040E88C
:102800005FE30E94250488232CF481E090E098ABDC
:102810008FA73FC069A97AA98BA99CA920E03FEFA7
:102820004FE757E40E94C50318164CF56DA97EA921
:102830008FA998AD20E030E040E251E40E941F02F1
:10284000DC01CB01BC01CD010E944900DC01CB01C0
:1028500098AB8FA70FC088EC90E09EA78DA78DA5A1
:102860009EA50197F1F79EA78DA78FA598A901971F
:1028700098AB8FA78FA598A9009769F714C069A98D
:102880007AA98BA99CA90E944900DC01CB0198ABD5
:102890008FA78FA598A99CA78BA78BA59CA501970F
:1028A000F1F79CA78BA70E94C90E80E090E0A8E4F6
:1028B000B2E48FA398A7A9A7BAA76FA178A589A505
:1028C0009AA520E030E04AEF54E40E941F02DC01A8
:1028D000CB018BA39CA3ADA3BEA36BA17CA18DA1B7
:1028E0009EA120E030E040E85FE30E9425048823B9
:1028F0002CF481E090E09AA389A33FC06BA17CA156
:102900008DA19EA120E03FEF4FE757E40E94C50351
:1029100018164CF56FA178A589A59AA520E030E09E
:1029200040E251E40E941F02DC01CB01BC01CD0159
:102930000E944900DC01CB019AA389A30FC088EC57
:1029400090E098A38F8F8F8D98A10197F1F798A3AE
:102950008F8F89A19AA101979AA389A389A19AA18E
:10296000009769F72BC16BA17CA18DA19EA10E944C
:102970004900DC01CB019AA389A389A19AA19E8F6A
:102980008D8F8D8D9E8D0197F1F79E8F8D8F16C146
:102990000E94F00E80E090E0A8E4B2E4898F9A8F64
:1029A000AB8FBC8F698D7A8D8B8D9C8D20E030E054
:1029B0004AEF54E40E941F02DC01CB018D8B9E8BF9
:1029C000AF8BB88F6D897E898F89988D20E030E03C
:1029D00040E85FE30E94250488232CF481E090E026
:1029E0009C8B8B8B3FC06D897E898F89988D20E071
:1029F0003FEF4FE757E40E94C50318164CF5698D69
:102A00007A8D8B8D9C8D20E030E040E251E40E9475
:102A10001F02DC01CB01BC01CD010E944900DC0199
:102A2000CB019C8B8B8B0FC088EC90E09A8B898BB1
:102A300089899A890197F1F79A8B898B8B899C896F
:102A400001979C8B8B8B8B899C89009769F714C0AD
:102A50006D897E898F89988D0E944900DC01CB01A8
:102A60009C8B8B8B8B899C89988B8F878F85988982
:102A70000197F1F7988B8F870E94C90E80E090E054
:102A8000A8E4B2E48B879C87AD87BE876B857C8585
:102A90008D859E8520E030E04AEF54E40E941F02BD
:102AA000DC01CB018F839887A987BA876F817885EE
:102AB00089859A8520E030E040E85FE30E942504A4
:102AC00088232CF481E090E09E838D833FC06F814A
:102AD000788589859A8520E03FEF4FE757E40E948B
:102AE000C50318164CF56B857C858D859E8520E089
:102AF00030E040E251E40E941F02DC01CB01BC0146
:102B0000CD010E944900DC01CB019E838D830FC063
:102B100088EC90E09C838B838B819C810197F1F7FB
:102B20009C838B838D819E8101979E838D838D8174
:102B30009E81009769F742C06F81788589859A8563
:102B40000E944900DC01CB019E838D838D819E8193
:102B50009A83898389819A810197F1F79A8389837E
:102B60002DC00E94FD0E2AC08AE00E940A0F26C0D6
:102B700084E10E940A0F22C08EE10E940A0F1EC04B
:102B800088E20E940A0F1AC082E30E940A0F16C050
:102B90008CE30E940A0F12C086E40E940A0F0EC046
:102BA00080E50E940A0F0AC08AE50E940A0F06C04B
:102BB00084E60E940A0F02C00E94FD0ECE58DF4F2D
:102BC0000FB6F894DEBF0FBECDBFCF91DF911F913E
:102BD0000F910895DF93CF9300D0CDB7DEB78091EA
:102BE00076018B3020F086E48093750139C01A821B
:102BF000198282E5809375010E9435160E94770E36
:102C00008A838CE4809375010E9435160E943516E4
:102C10000E94770E898382E5809375010E943516A4
:102C20009A818981981738F08A818B3020F082E56B
:102C30008093750115C099818A81981738F0898130
:102C40008B3020F08CE4809375010AC082E580937C
:102C500075010E9435160E94351686E48093750131
:102C60000F900F90CF91DF910895DF93CF93CDB761
:102C7000DEB76E970FB6F894DEBF0FBECDBF809162
:102C80007501282F30E03E8F2D8F8D8D9E8D8634DF
:102C90009105B9F02D8D3E8D2734310534F48D8D9D
:102CA0009E8D8234910581F0FCC02D8D3E8D2C349B
:102CB000310569F08D8D9E8D8235910509F47CC0BA
:102CC000F0C00E94D60EEFC00E94C90EECC00E9458
:102CD000E30E80E090E0AAEFB3E4898F9A8FAB8F88
:102CE000BC8F698D7A8D8B8D9C8D20E030E04AEF12
:102CF00054E40E941F02DC01CB018D8B9E8BAF8BB5
:102D0000B88F6D897E898F89988D20E030E040E80A
:102D10005FE30E94250488232CF481E090E09C8BE3
:102D20008B8B3FC06D897E898F89988D20E03FEF26
:102D30004FE757E40E94C50318164CF5698D7A8D4C
:102D40008B8D9C8D20E030E040E251E40E941F0218
:102D5000DC01CB01BC01CD010E944900DC01CB01AB
:102D60009C8B8B8B0FC088EC90E09A8B898B898928
:102D70009A890197F1F79A8B898B8B899C890197A6
:102D80009C8B8B8B8B899C89009769F78CC06D8994
:102D90007E898F89988D0E944900DC01CB019C8B34
:102DA0008B8B8B899C89988B8F878F8598890197CE
:102DB000F1F7988B8F8777C00E94F00E80E090E04B
:102DC000AAEFB3E48B879C87AD87BE876B857C8534
:102DD0008D859E8520E030E04AEF54E40E941F027A
:102DE000DC01CB018F839887A987BA876F817885AB
:102DF00089859A8520E030E040E85FE30E94250461
:102E000088232CF481E090E09E838D833FC06F8106
:102E1000788589859A8520E03FEF4FE757E40E9447
:102E2000C50318164CF56B857C858D859E8520E045
:102E300030E040E251E40E941F02DC01CB01BC0102
:102E4000CD010E944900DC01CB019E838D830FC020
:102E500088EC90E09C838B838B819C810197F1F7B8
:102E60009C838B838D819E8101979E838D838D8131
:102E70009E81009769F717C06F81788589859A854B
:102E80000E944900DC01CB019E838D838D819E8150
:102E90009A83898389819A810197F1F79A8389833B
:102EA00002C00E94FD0E6E960FB6F894DEBF0FBEF4
:102EB000CDBFCF91DF910895AA1BBB1B51E107C085
:102EC000AA1FBB1FA617B70710F0A61BB70B881FBA
:102ED000991F5A95A9F780959095BC01CD01089549
:102EE000A1E21A2EAA1BBB1BFD010DC0AA1FBB1F0E
:102EF000EE1FFF1FA217B307E407F50720F0A21B80
:102F0000B30BE40BF50B661F771F881F991F1A94EC
:102F100069F760957095809590959B01AC01BD0116
:102F2000CF0108952F923F924F925F926F927F92BE
:102F30008F929F92AF92BF92CF92DF92EF92FF92C9
:102F40000F931F93CF93DF93CDB7DEB7CA1BDB0B75
:102F50000FB6F894DEBF0FBECDBF09942A8839881A
:102F600048885F846E847D848C849B84AA84B98421
:102F7000C884DF80EE80FD800C811B81AA81B9812D
:102F8000CE0FD11D0FB6F894DEBF0FBECDBFED0141
:062F90000895F894FFCF44
:102F9600000000000000000000010202030303031A
:102FA60004040404040404040505050505050505D3
:102FB60005050505050505050606060606060606B3
:102FC600060606060606060606060606060606069B
:102FD6000606060606060606070707070707070783
:102FE600070707070707070707070707070707076B
:102FF600070707070707070707070707070707075B
:10300600070707070707070707070707070707074A
:103016000707070707070707080808080808080832
:10302600080808080808080808080808080808081A
:10303600080808080808080808080808080808080A
:1030460008080808080808080808080808080808FA
:1030560008080808080808080808080808080808EA
:1030660008080808080808080808080808080808DA
:1030760008080808080808080808080808080808CA
:1030860008080808080808080808080808080808BA
:0E3096000808080808080808000003030200E4
:00000001FF
